{"abi":[{"type":"fallback","stateMutability":"nonpayable"},{"type":"function","name":"buy","inputs":[{"name":"_amount","type":"uint256","internalType":"uint256"},{"name":"_proof","type":"string[]","internalType":"string[]"}],"outputs":[],"stateMutability":"nonpayable"},{"type":"function","name":"call_bytes","inputs":[{"name":"v","type":"bytes","internalType":"bytes"}],"outputs":[],"stateMutability":"nonpayable"},{"type":"function","name":"call_bytes32","inputs":[{"name":"v","type":"bytes32","internalType":"bytes32"}],"outputs":[],"stateMutability":"nonpayable"},{"type":"function","name":"call_bytes32Array","inputs":[{"name":"v","type":"bytes[]","internalType":"bytes[]"}],"outputs":[],"stateMutability":"nonpayable"},{"type":"function","name":"call_bytesArray","inputs":[{"name":"v","type":"bytes32[]","internalType":"bytes32[]"}],"outputs":[],"stateMutability":"nonpayable"},{"type":"function","name":"call_empty","inputs":[],"outputs":[],"stateMutability":"nonpayable"},{"type":"function","name":"call_nestedStruct","inputs":[{"name":"v","type":"tuple","internalType":"struct TestCalls.Struct2","components":[{"name":"a","type":"address","internalType":"address"},{"name":"s","type":"tuple","internalType":"struct TestCalls.Struct","components":[{"name":"n","type":"string","internalType":"string"},{"name":"v","type":"uint256","internalType":"uint256"}]}]}],"outputs":[],"stateMutability":"nonpayable"},{"type":"function","name":"call_string","inputs":[{"name":"v","type":"string","internalType":"string"}],"outputs":[],"stateMutability":"nonpayable"},{"type":"function","name":"call_stringArray","inputs":[{"name":"v","type":"string[]","internalType":"string[]"}],"outputs":[],"stateMutability":"nonpayable"},{"type":"function","name":"call_struct","inputs":[{"name":"v","type":"tuple","internalType":"struct TestCalls.Struct","components":[{"name":"n","type":"string","internalType":"string"},{"name":"v","type":"uint256","internalType":"uint256"}]}],"outputs":[],"stateMutability":"nonpayable"},{"type":"function","name":"call_uint","inputs":[{"name":"v","type":"uint256","internalType":"uint256"}],"outputs":[],"stateMutability":"nonpayable"},{"type":"function","name":"call_uintArray","inputs":[{"name":"v","type":"uint256[]","internalType":"uint256[]"}],"outputs":[],"stateMutability":"nonpayable"},{"type":"function","name":"call_uintArraySpecificLength","inputs":[{"name":"v","type":"uint256[2]","internalType":"uint256[2]"}],"outputs":[],"stateMutability":"nonpayable"},{"type":"function","name":"call_uintNestedArray","inputs":[{"name":"v","type":"uint256[][]","internalType":"uint256[][]"}],"outputs":[],"stateMutability":"nonpayable"},{"type":"function","name":"length_uintArry","inputs":[],"outputs":[{"name":"","type":"uint256","internalType":"uint256"}],"stateMutability":"pure"},{"type":"function","name":"pay","inputs":[{"name":"v","type":"uint256","internalType":"uint256"}],"outputs":[],"stateMutability":"payable"},{"type":"function","name":"two","inputs":[{"name":"x","type":"uint256","internalType":"uint256"},{"name":"y","type":"uint256","internalType":"uint256"}],"outputs":[],"stateMutability":"nonpayable"},{"type":"function","name":"uintArray","inputs":[{"name":"","type":"uint256","internalType":"uint256"}],"outputs":[{"name":"","type":"uint256","internalType":"uint256"}],"stateMutability":"view"}],"bytecode":{"object":"0x6080604052348015600e575f5ffd5b506106148061001c5f395ff3fe608060405260043610610108575f3560e01c80639ae918c711610094578063d0b9678811610063578063d0b96788146101a8578063ddcaf02814610134578063edbd1b54146101a8578063f9602e76146101a8578063fb4f1ef31461022e57610108565b80639ae918c7146101dc578063b27049521461020d578063c290d69114610220578063c780a7341461022e57610108565b80636083f432116100db5780636083f4321461016b578063744f15d91461018a5780637630942d146101a8578063877813e014610108578063914efeb1146101c257610108565b806308522d70146101155780630f53116e146101345780631264b4f3146101515780633735b48314610151575b348015610113575f5ffd5b005b348015610120575f5ffd5b5061011361012f3660046103f0565b505050565b34801561013f575f5ffd5b5061011361014e366004610438565b50565b34801561015c575f5ffd5b5061011361014e366004610465565b348015610176575f5ffd5b5061011361018536600461049f565b610248565b348015610195575f5ffd5b506101136101a43660046104de565b5050565b3480156101b3575f5ffd5b506101136101a436600461049f565b3480156101cd575f5ffd5b5061011361014e3660046104fe565b3480156101e7575f5ffd5b506101fb6101f6366004610438565b6102ca565b60405190815260200160405180910390f35b348015610218575f5ffd5b50600a6101fb565b61011361014e366004610438565b348015610239575f5ffd5b506101136101a436600461055b565b60408051808201909152600e81526d63616c6c5f75696e74417272617960901b602082015261027790826102e8565b6102bf6040518060400160405280600e81526020016d63616c6c5f75696e74417272617960901b81525083835f8181106102b3576102b361058e565b905060200201356102e8565b61012f5f838361034b565b5f81815481106102d8575f80fd5b5f91825260209091200154905081565b6101a482826040516024016102fe9291906105a2565b60408051601f198184030181529190526020810180516001600160e01b0316632d839cb360e21b17905261014e815f6a636f6e736f6c652e6c6f6790505f5f835160208501845afa505050565b828054828255905f5260205f20908101928215610384579160200282015b82811115610384578235825591602001919060010190610369565b50610390929150610394565b5090565b5b80821115610390575f8155600101610395565b5f5f83601f8401126103b8575f5ffd5b50813567ffffffffffffffff8111156103cf575f5ffd5b6020830191508360208260051b85010111156103e9575f5ffd5b9250929050565b5f5f5f60408486031215610402575f5ffd5b83359250602084013567ffffffffffffffff81111561041f575f5ffd5b61042b868287016103a8565b9497909650939450505050565b5f60208284031215610448575f5ffd5b5035919050565b5f6040828403121561045f575f5ffd5b50919050565b5f60208284031215610475575f5ffd5b813567ffffffffffffffff81111561048b575f5ffd5b6104978482850161044f565b949350505050565b5f5f602083850312156104b0575f5ffd5b823567ffffffffffffffff8111156104c6575f5ffd5b6104d2858286016103a8565b90969095509350505050565b5f5f604083850312156104ef575f5ffd5b50508035926020909101359150565b5f6040828403121561050e575f5ffd5b8260408301111561045f575f5ffd5b5f5f83601f84011261052d575f5ffd5b50813567ffffffffffffffff811115610544575f5ffd5b6020830191508360208285010111156103e9575f5ffd5b5f5f6020838503121561056c575f5ffd5b823567ffffffffffffffff811115610582575f5ffd5b6104d28582860161051d565b634e487b7160e01b5f52603260045260245ffd5b604081525f83518060408401528060208601606085015e5f606082850101526060601f19601f830116840101915050826020830152939250505056fea2646970667358221220cf1f784202c1f4aae66299c9389d23e5d6740e8a48baf795a007ff2d3af4dd9964736f6c634300081b0033","linkReferences":{}},"methodIdentifiers":{"buy(uint256,string[])":"08522d70","call_bytes(bytes)":"c780a734","call_bytes32(bytes32)":"ddcaf028","call_bytes32Array(bytes[])":"d0b96788","call_bytesArray(bytes32[])":"edbd1b54","call_empty()":"877813e0","call_nestedStruct((address,(string,uint256)))":"3735b483","call_string(string)":"fb4f1ef3","call_stringArray(string[])":"f9602e76","call_struct((string,uint256))":"1264b4f3","call_uint(uint256)":"0f53116e","call_uintArray(uint256[])":"6083f432","call_uintArraySpecificLength(uint256[2])":"914efeb1","call_uintNestedArray(uint256[][])":"7630942d","length_uintArry()":"b2704952","pay(uint256)":"c290d691","two(uint256,uint256)":"744f15d9","uintArray(uint256)":"9ae918c7"},"id":1}