{"abi":[{"type":"constructor","inputs":[],"stateMutability":"nonpayable"},{"type":"function","name":"allowance","inputs":[{"name":"owner","type":"address","internalType":"address"},{"name":"spender","type":"address","internalType":"address"}],"outputs":[{"name":"","type":"uint256","internalType":"uint256"}],"stateMutability":"view"},{"type":"function","name":"approve","inputs":[{"name":"spender","type":"address","internalType":"address"},{"name":"value","type":"uint256","internalType":"uint256"}],"outputs":[{"name":"","type":"bool","internalType":"bool"}],"stateMutability":"nonpayable"},{"type":"function","name":"balanceOf","inputs":[{"name":"account","type":"address","internalType":"address"}],"outputs":[{"name":"","type":"uint256","internalType":"uint256"}],"stateMutability":"view"},{"type":"function","name":"burn","inputs":[{"name":"from","type":"address","internalType":"address"},{"name":"amount","type":"uint256","internalType":"uint256"}],"outputs":[],"stateMutability":"nonpayable"},{"type":"function","name":"decimals","inputs":[],"outputs":[{"name":"","type":"uint8","internalType":"uint8"}],"stateMutability":"view"},{"type":"function","name":"mint","inputs":[{"name":"to","type":"address","internalType":"address"},{"name":"amount","type":"uint256","internalType":"uint256"}],"outputs":[],"stateMutability":"nonpayable"},{"type":"function","name":"name","inputs":[],"outputs":[{"name":"","type":"string","internalType":"string"}],"stateMutability":"view"},{"type":"function","name":"symbol","inputs":[],"outputs":[{"name":"","type":"string","internalType":"string"}],"stateMutability":"view"},{"type":"function","name":"totalSupply","inputs":[],"outputs":[{"name":"","type":"uint256","internalType":"uint256"}],"stateMutability":"view"},{"type":"function","name":"transfer","inputs":[{"name":"to","type":"address","internalType":"address"},{"name":"value","type":"uint256","internalType":"uint256"}],"outputs":[{"name":"","type":"bool","internalType":"bool"}],"stateMutability":"nonpayable"},{"type":"function","name":"transferFrom","inputs":[{"name":"from","type":"address","internalType":"address"},{"name":"to","type":"address","internalType":"address"},{"name":"value","type":"uint256","internalType":"uint256"}],"outputs":[{"name":"","type":"bool","internalType":"bool"}],"stateMutability":"nonpayable"},{"type":"event","name":"Approval","inputs":[{"name":"owner","type":"address","indexed":true,"internalType":"address"},{"name":"spender","type":"address","indexed":true,"internalType":"address"},{"name":"value","type":"uint256","indexed":false,"internalType":"uint256"}],"anonymous":false},{"type":"event","name":"Transfer","inputs":[{"name":"from","type":"address","indexed":true,"internalType":"address"},{"name":"to","type":"address","indexed":true,"internalType":"address"},{"name":"value","type":"uint256","indexed":false,"internalType":"uint256"}],"anonymous":false},{"type":"error","name":"ERC20InsufficientAllowance","inputs":[{"name":"spender","type":"address","internalType":"address"},{"name":"allowance","type":"uint256","internalType":"uint256"},{"name":"needed","type":"uint256","internalType":"uint256"}]},{"type":"error","name":"ERC20InsufficientBalance","inputs":[{"name":"sender","type":"address","internalType":"address"},{"name":"balance","type":"uint256","internalType":"uint256"},{"name":"needed","type":"uint256","internalType":"uint256"}]},{"type":"error","name":"ERC20InvalidApprover","inputs":[{"name":"approver","type":"address","internalType":"address"}]},{"type":"error","name":"ERC20InvalidReceiver","inputs":[{"name":"receiver","type":"address","internalType":"address"}]},{"type":"error","name":"ERC20InvalidSender","inputs":[{"name":"sender","type":"address","internalType":"address"}]},{"type":"error","name":"ERC20InvalidSpender","inputs":[{"name":"spender","type":"address","internalType":"address"}]}],"bytecode":{"object":"0x608060405234801561000f575f5ffd5b50604051806040016040528060098152602001682a32b9ba2a37b5b2b760b91b81525060405180604001604052806004815260200163151154d560e21b815250816003908161005e919061010b565b50600461006b828261010b565b5050506101c5565b634e487b7160e01b5f52604160045260245ffd5b600181811c9082168061009b57607f821691505b6020821081036100b957634e487b7160e01b5f52602260045260245ffd5b50919050565b601f82111561010657805f5260205f20601f840160051c810160208510156100e45750805b601f840160051c820191505b81811015610103575f81556001016100f0565b50505b505050565b81516001600160401b0381111561012457610124610073565b610138816101328454610087565b846100bf565b6020601f82116001811461016a575f83156101535750848201515b5f19600385901b1c1916600184901b178455610103565b5f84815260208120601f198516915b828110156101995787850151825560209485019460019092019101610179565b50848210156101b657868401515f19600387901b60f8161c191681555b50505050600190811b01905550565b6107a1806101d25f395ff3fe608060405234801561000f575f5ffd5b50600436106100a6575f3560e01c806340c10f191161006e57806340c10f191461011f57806370a082311461013457806395d89b411461015c5780639dc29fac14610164578063a9059cbb14610177578063dd62ed3e1461018a575f5ffd5b806306fdde03146100aa578063095ea7b3146100c857806318160ddd146100eb57806323b872dd146100fd578063313ce56714610110575b5f5ffd5b6100b26101c2565b6040516100bf9190610611565b60405180910390f35b6100db6100d6366004610661565b610252565b60405190151581526020016100bf565b6002545b6040519081526020016100bf565b6100db61010b366004610689565b61026b565b604051601281526020016100bf565b61013261012d366004610661565b61028e565b005b6100ef6101423660046106c3565b6001600160a01b03165f9081526020819052604090205490565b6100b261029c565b610132610172366004610661565b6102ab565b6100db610185366004610661565b6102b5565b6100ef6101983660046106e3565b6001600160a01b039182165f90815260016020908152604080832093909416825291909152205490565b6060600380546101d190610714565b80601f01602080910402602001604051908101604052809291908181526020018280546101fd90610714565b80156102485780601f1061021f57610100808354040283529160200191610248565b820191905f5260205f20905b81548152906001019060200180831161022b57829003601f168201915b5050505050905090565b5f3361025f8185856102c2565b60019150505b92915050565b5f336102788582856102d4565b610283858585610354565b506001949350505050565b61029882826103b1565b5050565b6060600480546101d190610714565b61029882826103e5565b5f3361025f818585610354565b6102cf8383836001610419565b505050565b6001600160a01b038381165f908152600160209081526040808320938616835292905220545f19811461034e578181101561034057604051637dc7a0d960e11b81526001600160a01b038416600482015260248101829052604481018390526064015b60405180910390fd5b61034e84848484035f610419565b50505050565b6001600160a01b03831661037d57604051634b637e8f60e11b81525f6004820152602401610337565b6001600160a01b0382166103a65760405163ec442f0560e01b81525f6004820152602401610337565b6102cf8383836104eb565b6001600160a01b0382166103da5760405163ec442f0560e01b81525f6004820152602401610337565b6102985f83836104eb565b6001600160a01b03821661040e57604051634b637e8f60e11b81525f6004820152602401610337565b610298825f836104eb565b6001600160a01b0384166104425760405163e602df0560e01b81525f6004820152602401610337565b6001600160a01b03831661046b57604051634a1406b160e11b81525f6004820152602401610337565b6001600160a01b038085165f908152600160209081526040808320938716835292905220829055801561034e57826001600160a01b0316846001600160a01b03167f8c5be1e5ebec7d5bd14f71427d1e84f3dd0314c0f7b2291e5b200ac8c7c3b925846040516104dd91815260200190565b60405180910390a350505050565b6001600160a01b038316610515578060025f82825461050a919061074c565b909155506105859050565b6001600160a01b0383165f90815260208190526040902054818110156105675760405163391434e360e21b81526001600160a01b03851660048201526024810182905260448101839052606401610337565b6001600160a01b0384165f9081526020819052604090209082900390555b6001600160a01b0382166105a1576002805482900390556105bf565b6001600160a01b0382165f9081526020819052604090208054820190555b816001600160a01b0316836001600160a01b03167fddf252ad1be2c89b69c2b068fc378daa952ba7f163c4a11628f55a4df523b3ef8360405161060491815260200190565b60405180910390a3505050565b602081525f82518060208401528060208501604085015e5f604082850101526040601f19601f83011684010191505092915050565b80356001600160a01b038116811461065c575f5ffd5b919050565b5f5f60408385031215610672575f5ffd5b61067b83610646565b946020939093013593505050565b5f5f5f6060848603121561069b575f5ffd5b6106a484610646565b92506106b260208501610646565b929592945050506040919091013590565b5f602082840312156106d3575f5ffd5b6106dc82610646565b9392505050565b5f5f604083850312156106f4575f5ffd5b6106fd83610646565b915061070b60208401610646565b90509250929050565b600181811c9082168061072857607f821691505b60208210810361074657634e487b7160e01b5f52602260045260245ffd5b50919050565b8082018082111561026557634e487b7160e01b5f52601160045260245ffdfea2646970667358221220e855f9b1a8d5052f7010b6988f370e866dd4e56eeb2ae5f6879078a143a43e7364736f6c634300081b0033","linkReferences":{}},"methodIdentifiers":{"allowance(address,address)":"dd62ed3e","approve(address,uint256)":"095ea7b3","balanceOf(address)":"70a08231","burn(address,uint256)":"9dc29fac","decimals()":"313ce567","mint(address,uint256)":"40c10f19","name()":"06fdde03","symbol()":"95d89b41","totalSupply()":"18160ddd","transfer(address,uint256)":"a9059cbb","transferFrom(address,address,uint256)":"23b872dd"},"id":2}