{"abi":[{"type":"constructor","inputs":[{"name":"_baseImageURI","type":"string","internalType":"string"}],"stateMutability":"nonpayable"},{"type":"function","name":"approve","inputs":[{"name":"to","type":"address","internalType":"address"},{"name":"tokenId","type":"uint256","internalType":"uint256"}],"outputs":[],"stateMutability":"nonpayable"},{"type":"function","name":"balanceOf","inputs":[{"name":"owner","type":"address","internalType":"address"}],"outputs":[{"name":"","type":"uint256","internalType":"uint256"}],"stateMutability":"view"},{"type":"function","name":"currentId","inputs":[],"outputs":[{"name":"","type":"uint256","internalType":"uint256"}],"stateMutability":"view"},{"type":"function","name":"getApproved","inputs":[{"name":"tokenId","type":"uint256","internalType":"uint256"}],"outputs":[{"name":"","type":"address","internalType":"address"}],"stateMutability":"view"},{"type":"function","name":"isApprovedForAll","inputs":[{"name":"owner","type":"address","internalType":"address"},{"name":"operator","type":"address","internalType":"address"}],"outputs":[{"name":"","type":"bool","internalType":"bool"}],"stateMutability":"view"},{"type":"function","name":"listTokensByAddress","inputs":[{"name":"tokensOwner","type":"address","internalType":"address"}],"outputs":[{"name":"","type":"uint256[]","internalType":"uint256[]"}],"stateMutability":"view"},{"type":"function","name":"mint","inputs":[{"name":"to","type":"address","internalType":"address"}],"outputs":[],"stateMutability":"nonpayable"},{"type":"function","name":"name","inputs":[],"outputs":[{"name":"","type":"string","internalType":"string"}],"stateMutability":"view"},{"type":"function","name":"ownerOf","inputs":[{"name":"tokenId","type":"uint256","internalType":"uint256"}],"outputs":[{"name":"","type":"address","internalType":"address"}],"stateMutability":"view"},{"type":"function","name":"safeTransferFrom","inputs":[{"name":"from","type":"address","internalType":"address"},{"name":"to","type":"address","internalType":"address"},{"name":"tokenId","type":"uint256","internalType":"uint256"}],"outputs":[],"stateMutability":"nonpayable"},{"type":"function","name":"safeTransferFrom","inputs":[{"name":"from","type":"address","internalType":"address"},{"name":"to","type":"address","internalType":"address"},{"name":"tokenId","type":"uint256","internalType":"uint256"},{"name":"data","type":"bytes","internalType":"bytes"}],"outputs":[],"stateMutability":"nonpayable"},{"type":"function","name":"setApprovalForAll","inputs":[{"name":"operator","type":"address","internalType":"address"},{"name":"approved","type":"bool","internalType":"bool"}],"outputs":[],"stateMutability":"nonpayable"},{"type":"function","name":"supportsInterface","inputs":[{"name":"interfaceId","type":"bytes4","internalType":"bytes4"}],"outputs":[{"name":"","type":"bool","internalType":"bool"}],"stateMutability":"view"},{"type":"function","name":"symbol","inputs":[],"outputs":[{"name":"","type":"string","internalType":"string"}],"stateMutability":"view"},{"type":"function","name":"tokenByIndex","inputs":[{"name":"index","type":"uint256","internalType":"uint256"}],"outputs":[{"name":"","type":"uint256","internalType":"uint256"}],"stateMutability":"view"},{"type":"function","name":"tokenOfOwnerByIndex","inputs":[{"name":"owner","type":"address","internalType":"address"},{"name":"index","type":"uint256","internalType":"uint256"}],"outputs":[{"name":"","type":"uint256","internalType":"uint256"}],"stateMutability":"view"},{"type":"function","name":"tokenURI","inputs":[{"name":"id","type":"uint256","internalType":"uint256"}],"outputs":[{"name":"","type":"string","internalType":"string"}],"stateMutability":"view"},{"type":"function","name":"totalSupply","inputs":[],"outputs":[{"name":"","type":"uint256","internalType":"uint256"}],"stateMutability":"view"},{"type":"function","name":"transferFrom","inputs":[{"name":"from","type":"address","internalType":"address"},{"name":"to","type":"address","internalType":"address"},{"name":"tokenId","type":"uint256","internalType":"uint256"}],"outputs":[],"stateMutability":"nonpayable"},{"type":"event","name":"Approval","inputs":[{"name":"owner","type":"address","indexed":true,"internalType":"address"},{"name":"approved","type":"address","indexed":true,"internalType":"address"},{"name":"tokenId","type":"uint256","indexed":true,"internalType":"uint256"}],"anonymous":false},{"type":"event","name":"ApprovalForAll","inputs":[{"name":"owner","type":"address","indexed":true,"internalType":"address"},{"name":"operator","type":"address","indexed":true,"internalType":"address"},{"name":"approved","type":"bool","indexed":false,"internalType":"bool"}],"anonymous":false},{"type":"event","name":"Transfer","inputs":[{"name":"from","type":"address","indexed":true,"internalType":"address"},{"name":"to","type":"address","indexed":true,"internalType":"address"},{"name":"tokenId","type":"uint256","indexed":true,"internalType":"uint256"}],"anonymous":false},{"type":"error","name":"ERC721EnumerableForbiddenBatchMint","inputs":[]},{"type":"error","name":"ERC721IncorrectOwner","inputs":[{"name":"sender","type":"address","internalType":"address"},{"name":"tokenId","type":"uint256","internalType":"uint256"},{"name":"owner","type":"address","internalType":"address"}]},{"type":"error","name":"ERC721InsufficientApproval","inputs":[{"name":"operator","type":"address","internalType":"address"},{"name":"tokenId","type":"uint256","internalType":"uint256"}]},{"type":"error","name":"ERC721InvalidApprover","inputs":[{"name":"approver","type":"address","internalType":"address"}]},{"type":"error","name":"ERC721InvalidOperator","inputs":[{"name":"operator","type":"address","internalType":"address"}]},{"type":"error","name":"ERC721InvalidOwner","inputs":[{"name":"owner","type":"address","internalType":"address"}]},{"type":"error","name":"ERC721InvalidReceiver","inputs":[{"name":"receiver","type":"address","internalType":"address"}]},{"type":"error","name":"ERC721InvalidSender","inputs":[{"name":"sender","type":"address","internalType":"address"}]},{"type":"error","name":"ERC721NonexistentToken","inputs":[{"name":"tokenId","type":"uint256","internalType":"uint256"}]},{"type":"error","name":"ERC721OutOfBoundsIndex","inputs":[{"name":"owner","type":"address","internalType":"address"},{"name":"index","type":"uint256","internalType":"uint256"}]},{"type":"error","name":"InvalidArguments","inputs":[]}],"bytecode":{"object":"0x608060405234801561000f575f5ffd5b50604051611b4e380380611b4e83398101604081905261002e9161011e565b604051806040016040528060078152602001662827a5a2a6a7a760c91b815250604051806040016040528060048152602001632825a6a760e11b815250815f90816100799190610252565b5060016100868282610252565b50508151829150602f60f81b9082906100a19060019061030c565b815181106100b1576100b1610331565b01602001517fff0000000000000000000000000000000000000000000000000000000000000016146100f6576040516317dbc4cb60e21b815260040160405180910390fd5b600b6101028382610252565b505050610345565b634e487b7160e01b5f52604160045260245ffd5b5f6020828403121561012e575f5ffd5b81516001600160401b03811115610143575f5ffd5b8201601f81018413610153575f5ffd5b80516001600160401b0381111561016c5761016c61010a565b604051601f8201601f19908116603f011681016001600160401b038111828210171561019a5761019a61010a565b6040528181528282016020018610156101b1575f5ffd5b8160208401602083015e5f91810160200191909152949350505050565b600181811c908216806101e257607f821691505b60208210810361020057634e487b7160e01b5f52602260045260245ffd5b50919050565b601f82111561024d57805f5260205f20601f840160051c8101602085101561022b5750805b601f840160051c820191505b8181101561024a575f8155600101610237565b50505b505050565b81516001600160401b0381111561026b5761026b61010a565b61027f8161027984546101ce565b84610206565b6020601f8211600181146102b1575f831561029a5750848201515b5f19600385901b1c1916600184901b17845561024a565b5f84815260208120601f198516915b828110156102e057878501518255602094850194600190920191016102c0565b50848210156102fd57868401515f19600387901b60f8161c191681555b50505050600190811b01905550565b8181038181111561032b57634e487b7160e01b5f52601160045260245ffd5b92915050565b634e487b7160e01b5f52603260045260245ffd5b6117fc806103525f395ff3fe608060405234801561000f575f5ffd5b506004361061011c575f3560e01c80634f6ccce7116100a9578063a22cb4651161006e578063a22cb4651461025c578063b88d4fde1461026f578063c87b56dd14610282578063e00dd16114610295578063e985e9c51461029e575f5ffd5b80634f6ccce7146102085780636352211e1461021b5780636a6278421461022e57806370a082311461024157806395d89b4114610254575f5ffd5b80631323a0e2116100ef5780631323a0e21461019d57806318160ddd146101bd57806323b872dd146101cf5780632f745c59146101e257806342842e0e146101f5575f5ffd5b806301ffc9a71461012057806306fdde0314610148578063081812fc1461015d578063095ea7b314610188575b5f5ffd5b61013361012e366004611204565b6102b1565b60405190151581526020015b60405180910390f35b6101506102db565b60405161013f9190611254565b61017061016b366004611266565b61036a565b6040516001600160a01b03909116815260200161013f565b61019b610196366004611298565b610391565b005b6101b06101ab3660046112c0565b6103a0565b60405161013f91906112d9565b6008545b60405190815260200161013f565b61019b6101dd36600461131b565b610435565b6101c16101f0366004611298565b6104c3565b61019b61020336600461131b565b610526565b6101c1610216366004611266565b610545565b610170610229366004611266565b61059a565b61019b61023c3660046112c0565b6105a4565b6101c161024f3660046112c0565b6105c8565b61015061060d565b61019b61026a366004611355565b61061c565b61019b61027d3660046113a2565b610627565b610150610290366004611266565b61063e565b6101c1600a5481565b6101336102ac36600461147f565b610705565b5f6001600160e01b0319821663780e9d6360e01b14806102d557506102d582610732565b92915050565b60605f80546102e9906114b0565b80601f0160208091040260200160405190810160405280929190818152602001828054610315906114b0565b80156103605780601f1061033757610100808354040283529160200191610360565b820191905f5260205f20905b81548152906001019060200180831161034357829003601f168201915b5050505050905090565b5f61037482610781565b505f828152600460205260409020546001600160a01b03166102d5565b61039c8282336107b9565b5050565b60605f6103ac836105c8565b90505f8167ffffffffffffffff8111156103c8576103c861138e565b6040519080825280602002602001820160405280156103f1578160200160208202803683370190505b5090505f5b8281101561042d5761040885826104c3565b82828151811061041a5761041a6114e8565b60209081029190910101526001016103f6565b509392505050565b6001600160a01b03821661046357604051633250574960e11b81525f60048201526024015b60405180910390fd5b5f61046f8383336107c6565b9050836001600160a01b0316816001600160a01b0316146104bd576040516364283d7b60e01b81526001600160a01b038086166004830152602482018490528216604482015260640161045a565b50505050565b5f6104cd836105c8565b82106104fe5760405163295f44f760e21b81526001600160a01b03841660048201526024810183905260440161045a565b506001600160a01b03919091165f908152600660209081526040808320938352929052205490565b61054083838360405180602001604052805f815250610627565b505050565b5f61054f60085490565b82106105775760405163295f44f760e21b81525f60048201526024810183905260440161045a565b6008828154811061058a5761058a6114e8565b905f5260205f2001549050919050565b5f6102d582610781565b6001600a5f8282546105b69190611510565b9091555050600a5461039c8282610899565b5f6001600160a01b0382166105f2576040516322718ad960e21b81525f600482015260240161045a565b506001600160a01b03165f9081526003602052604090205490565b6060600180546102e9906114b0565b61039c3383836108b2565b610632848484610435565b6104bd84848484610950565b60605f61064a83610a76565b905080600a84101561067d5781604051602001610667919061153a565b60405160208183030381529060405290506106a9565b60648410156106a957816040516020016106979190611550565b60405160208183030381529060405290505b5f8283600b846040516020016106c29493929190611565565b60405160208183030381529060405290506106dc81610b06565b6040516020016106ec91906116a1565b6040516020818303038152906040529350505050919050565b6001600160a01b039182165f90815260056020908152604080832093909416825291909152205460ff1690565b5f6001600160e01b031982166380ac58cd60e01b148061076257506001600160e01b03198216635b5e139f60e01b145b806102d557506301ffc9a760e01b6001600160e01b03198316146102d5565b5f818152600260205260408120546001600160a01b0316806102d557604051637e27328960e01b81526004810184905260240161045a565b6105408383836001610c61565b5f5f6107d3858585610d65565b90506001600160a01b03811661082f5761082a84600880545f838152600960205260408120829055600182018355919091527ff3f7a9fe364faab93b216da50a3214154f22a0a2b415b23a84c8169e8b636ee30155565b610852565b846001600160a01b0316816001600160a01b031614610852576108528185610e57565b6001600160a01b03851661086e5761086984610ee4565b610891565b846001600160a01b0316816001600160a01b031614610891576108918585610f8b565b949350505050565b61039c828260405180602001604052805f815250610fd9565b6001600160a01b0382166108e457604051630b61174360e31b81526001600160a01b038316600482015260240161045a565b6001600160a01b038381165f81815260056020908152604080832094871680845294825291829020805460ff191686151590811790915591519182527f17307eab39ab6107e8899845ad3d59bd9653f200f220920489ca2b5937696c31910160405180910390a3505050565b6001600160a01b0383163b156104bd57604051630a85bd0160e11b81526001600160a01b0384169063150b7a02906109929033908890879087906004016116d2565b6020604051808303815f875af19250505080156109cc575060408051601f3d908101601f191682019092526109c99181019061170e565b60015b610a33573d8080156109f9576040519150601f19603f3d011682016040523d82523d5f602084013e6109fe565b606091505b5080515f03610a2b57604051633250574960e11b81526001600160a01b038516600482015260240161045a565b805181602001fd5b6001600160e01b03198116630a85bd0160e11b14610a6f57604051633250574960e11b81526001600160a01b038516600482015260240161045a565b5050505050565b60605f610a8283610fef565b60010190505f8167ffffffffffffffff811115610aa157610aa161138e565b6040519080825280601f01601f191660200182016040528015610acb576020820181803683370190505b5090508181016020015b5f19016f181899199a1a9b1b9c1cb0b131b232b360811b600a86061a8153600a8504945084610ad557509392505050565b606081515f03610b2357505060408051602081019091525f815290565b5f6040518060600160405280604081526020016117876040913990505f600384516002610b509190611510565b610b5a9190611729565b610b65906004611748565b67ffffffffffffffff811115610b7d57610b7d61138e565b6040519080825280601f01601f191660200182016040528015610ba7576020820181803683370190505b509050600182016020820185865187016020810180515f82525b82841015610c1c576003840193508351603f8160121c168701518653600186019550603f81600c1c168701518653600186019550603f8160061c168701518653600186019550603f8116870151865350600185019450610bc1565b9052505085516003900660018114610c3b5760028114610c4e57610c56565b603d6001830353603d6002830353610c56565b603d60018303535b509195945050505050565b8080610c7557506001600160a01b03821615155b15610d36575f610c8484610781565b90506001600160a01b03831615801590610cb05750826001600160a01b0316816001600160a01b031614155b8015610cc35750610cc18184610705565b155b15610cec5760405163a9fbf51f60e01b81526001600160a01b038416600482015260240161045a565b8115610d345783856001600160a01b0316826001600160a01b03167f8c5be1e5ebec7d5bd14f71427d1e84f3dd0314c0f7b2291e5b200ac8c7c3b92560405160405180910390a45b505b50505f90815260046020526040902080546001600160a01b0319166001600160a01b0392909216919091179055565b5f828152600260205260408120546001600160a01b0390811690831615610d9157610d918184866110c6565b6001600160a01b03811615610dcb57610dac5f855f5f610c61565b6001600160a01b0381165f90815260036020526040902080545f190190555b6001600160a01b03851615610df9576001600160a01b0385165f908152600360205260409020805460010190555b5f8481526002602052604080822080546001600160a01b0319166001600160a01b0389811691821790925591518793918516917fddf252ad1be2c89b69c2b068fc378daa952ba7f163c4a11628f55a4df523b3ef91a4949350505050565b5f610e61836105c8565b5f83815260076020526040902054909150808214610eb2576001600160a01b0384165f9081526006602090815260408083208584528252808320548484528184208190558352600790915290208190555b505f9182526007602090815260408084208490556001600160a01b039094168352600681528383209183525290812055565b6008545f90610ef59060019061175f565b5f8381526009602052604081205460088054939450909284908110610f1c57610f1c6114e8565b905f5260205f20015490508060088381548110610f3b57610f3b6114e8565b5f918252602080832090910192909255828152600990915260408082208490558582528120556008805480610f7257610f72611772565b600190038181905f5260205f20015f9055905550505050565b5f6001610f97846105c8565b610fa1919061175f565b6001600160a01b039093165f908152600660209081526040808320868452825280832085905593825260079052919091209190915550565b610fe3838361112a565b6105405f848484610950565b5f8072184f03e93ff9f4daa797ed6e38ed64bf6a1f0160401b831061102d5772184f03e93ff9f4daa797ed6e38ed64bf6a1f0160401b830492506040015b6d04ee2d6d415b85acef81000000008310611059576d04ee2d6d415b85acef8100000000830492506020015b662386f26fc10000831061107757662386f26fc10000830492506010015b6305f5e100831061108f576305f5e100830492506008015b61271083106110a357612710830492506004015b606483106110b5576064830492506002015b600a83106102d55760010192915050565b6110d183838361118b565b610540576001600160a01b0383166110ff57604051637e27328960e01b81526004810182905260240161045a565b60405163177e802f60e01b81526001600160a01b03831660048201526024810182905260440161045a565b6001600160a01b03821661115357604051633250574960e11b81525f600482015260240161045a565b5f61115f83835f6107c6565b90506001600160a01b03811615610540576040516339e3563760e11b81525f600482015260240161045a565b5f6001600160a01b038316158015906108915750826001600160a01b0316846001600160a01b031614806111c457506111c48484610705565b806108915750505f908152600460205260409020546001600160a01b03908116911614919050565b6001600160e01b031981168114611201575f5ffd5b50565b5f60208284031215611214575f5ffd5b813561121f816111ec565b9392505050565b5f81518084528060208401602086015e5f602082860101526020601f19601f83011685010191505092915050565b602081525f61121f6020830184611226565b5f60208284031215611276575f5ffd5b5035919050565b80356001600160a01b0381168114611293575f5ffd5b919050565b5f5f604083850312156112a9575f5ffd5b6112b28361127d565b946020939093013593505050565b5f602082840312156112d0575f5ffd5b61121f8261127d565b602080825282518282018190525f918401906040840190835b818110156113105783518352602093840193909201916001016112f2565b509095945050505050565b5f5f5f6060848603121561132d575f5ffd5b6113368461127d565b92506113446020850161127d565b929592945050506040919091013590565b5f5f60408385031215611366575f5ffd5b61136f8361127d565b915060208301358015158114611383575f5ffd5b809150509250929050565b634e487b7160e01b5f52604160045260245ffd5b5f5f5f5f608085870312156113b5575f5ffd5b6113be8561127d565b93506113cc6020860161127d565b925060408501359150606085013567ffffffffffffffff8111156113ee575f5ffd5b8501601f810187136113fe575f5ffd5b803567ffffffffffffffff8111156114185761141861138e565b604051601f8201601f19908116603f0116810167ffffffffffffffff811182821017156114475761144761138e565b60405281815282820160200189101561145e575f5ffd5b816020840160208301375f6020838301015280935050505092959194509250565b5f5f60408385031215611490575f5ffd5b6114998361127d565b91506114a76020840161127d565b90509250929050565b600181811c908216806114c457607f821691505b6020821081036114e257634e487b7160e01b5f52602260045260245ffd5b50919050565b634e487b7160e01b5f52603260045260245ffd5b634e487b7160e01b5f52601160045260245ffd5b808201808211156102d5576102d56114fc565b5f81518060208401855e5f93019283525090919050565b61030360f41b81525f61121f6002830184611523565b600360fc1b81525f61121f6001830184611523565b607b60f81b8152641134b2111d60d91b60018201525f6115886006830187611523565b600b60fa1b815267113730b6b2911d1160c11b60018201526115ad6009820187611523565b61088b60f21b8152681134b6b0b3b2911d1160b91b600282015285549091505f90600181811c908216806115e257607f821691505b60208210810361160057634e487b7160e01b5f52602260045260245ffd5b808015611614576001811461162f57611663565b60ff198416600b870152600b83151584028701019450611663565b5f8a8152602090205f5b84811015611658578154888201600b0152600190910190602001611639565b5050600b8387010194505b505050506116956116886116778388611523565b64173837339160d91b815260050190565b607d60f81b815260010190565b98975050505050505050565b7f646174613a6170706c69636174696f6e2f6a736f6e3b6261736536342c00000081525f61121f601d830184611523565b6001600160a01b03858116825284166020820152604081018390526080606082018190525f9061170490830184611226565b9695505050505050565b5f6020828403121561171e575f5ffd5b815161121f816111ec565b5f8261174357634e487b7160e01b5f52601260045260245ffd5b500490565b80820281158282048414176102d5576102d56114fc565b818103818111156102d5576102d56114fc565b634e487b7160e01b5f52603160045260245ffdfe4142434445464748494a4b4c4d4e4f505152535455565758595a6162636465666768696a6b6c6d6e6f707172737475767778797a303132333435363738392b2fa2646970667358221220eca348bb48125b862aaffa401d4455a9ff5edec92b5307a6160ab3eb862e9a8364736f6c634300081b0033","linkReferences":{}},"methodIdentifiers":{"approve(address,uint256)":"095ea7b3","balanceOf(address)":"70a08231","currentId()":"e00dd161","getApproved(uint256)":"081812fc","isApprovedForAll(address,address)":"e985e9c5","listTokensByAddress(address)":"1323a0e2","mint(address)":"6a627842","name()":"06fdde03","ownerOf(uint256)":"6352211e","safeTransferFrom(address,address,uint256)":"42842e0e","safeTransferFrom(address,address,uint256,bytes)":"b88d4fde","setApprovalForAll(address,bool)":"a22cb465","supportsInterface(bytes4)":"01ffc9a7","symbol()":"95d89b41","tokenByIndex(uint256)":"4f6ccce7","tokenOfOwnerByIndex(address,uint256)":"2f745c59","tokenURI(uint256)":"c87b56dd","totalSupply()":"18160ddd","transferFrom(address,address,uint256)":"23b872dd"},"id":0}